{
  "_format": "hh-sol-artifact-1",
  "contractName": "Multisig",
  "sourceName": "contracts/Multisig.sol",
  "abi": [
    {
      "inputs": [
        {
          "internalType": "address[]",
          "name": "signers_",
          "type": "address[]"
        },
        {
          "internalType": "uint256",
          "name": "sigsRequired_",
          "type": "uint256"
        }
      ],
      "stateMutability": "nonpayable",
      "type": "constructor"
    },
    {
      "inputs": [],
      "name": "ExecuteFailed",
      "type": "error"
    },
    {
      "inputs": [],
      "name": "InsufficientSigs",
      "type": "error"
    },
    {
      "inputs": [],
      "name": "NotSigner",
      "type": "error"
    },
    {
      "inputs": [],
      "name": "Signed",
      "type": "error"
    },
    {
      "anonymous": false,
      "inputs": [
        {
          "indexed": true,
          "internalType": "uint256",
          "name": "proposal",
          "type": "uint256"
        }
      ],
      "name": "Execute",
      "type": "event"
    },
    {
      "anonymous": false,
      "inputs": [
        {
          "indexed": true,
          "internalType": "address",
          "name": "proposer",
          "type": "address"
        },
        {
          "indexed": true,
          "internalType": "uint256",
          "name": "proposal",
          "type": "uint256"
        }
      ],
      "name": "Propose",
      "type": "event"
    },
    {
      "anonymous": false,
      "inputs": [
        {
          "indexed": true,
          "internalType": "address",
          "name": "signer",
          "type": "address"
        },
        {
          "indexed": true,
          "internalType": "uint256",
          "name": "proposal",
          "type": "uint256"
        }
      ],
      "name": "Sign",
      "type": "event"
    },
    {
      "inputs": [
        {
          "internalType": "uint256",
          "name": "proposal",
          "type": "uint256"
        }
      ],
      "name": "execute",
      "outputs": [
        {
          "internalType": "bool",
          "name": "success",
          "type": "bool"
        },
        {
          "internalType": "bytes",
          "name": "result",
          "type": "bytes"
        }
      ],
      "stateMutability": "nonpayable",
      "type": "function"
    },
    {
      "inputs": [],
      "name": "proposalCounter",
      "outputs": [
        {
          "internalType": "uint256",
          "name": "",
          "type": "uint256"
        }
      ],
      "stateMutability": "view",
      "type": "function"
    },
    {
      "inputs": [
        {
          "internalType": "uint256",
          "name": "",
          "type": "uint256"
        }
      ],
      "name": "proposals",
      "outputs": [
        {
          "internalType": "address",
          "name": "target",
          "type": "address"
        },
        {
          "internalType": "uint256",
          "name": "value",
          "type": "uint256"
        },
        {
          "internalType": "bytes",
          "name": "payload",
          "type": "bytes"
        },
        {
          "internalType": "uint256",
          "name": "sigs",
          "type": "uint256"
        }
      ],
      "stateMutability": "view",
      "type": "function"
    },
    {
      "inputs": [
        {
          "internalType": "address",
          "name": "target",
          "type": "address"
        },
        {
          "internalType": "uint256",
          "name": "value",
          "type": "uint256"
        },
        {
          "internalType": "bytes",
          "name": "payload",
          "type": "bytes"
        }
      ],
      "name": "propose",
      "outputs": [],
      "stateMutability": "nonpayable",
      "type": "function"
    },
    {
      "inputs": [
        {
          "internalType": "uint256",
          "name": "proposal",
          "type": "uint256"
        }
      ],
      "name": "sign",
      "outputs": [],
      "stateMutability": "nonpayable",
      "type": "function"
    },
    {
      "inputs": [
        {
          "internalType": "uint256",
          "name": "",
          "type": "uint256"
        },
        {
          "internalType": "address",
          "name": "",
          "type": "address"
        }
      ],
      "name": "signed",
      "outputs": [
        {
          "internalType": "bool",
          "name": "",
          "type": "bool"
        }
      ],
      "stateMutability": "view",
      "type": "function"
    },
    {
      "inputs": [
        {
          "internalType": "address",
          "name": "",
          "type": "address"
        }
      ],
      "name": "signer",
      "outputs": [
        {
          "internalType": "bool",
          "name": "",
          "type": "bool"
        }
      ],
      "stateMutability": "view",
      "type": "function"
    },
    {
      "inputs": [],
      "name": "sigsRequired",
      "outputs": [
        {
          "internalType": "uint256",
          "name": "",
          "type": "uint256"
        }
      ],
      "stateMutability": "view",
      "type": "function"
    },
    {
      "stateMutability": "payable",
      "type": "receive"
    }
  ],
  "bytecode": "0x608060405234801561001057600080fd5b50604051610b50380380610b5083398101604081905261002f916100c1565b60005b825181101561009b5760016002600085848151811061006157634e487b7160e01b600052603260045260246000fd5b6020908102919091018101516001600160a01b03168252810191909152604001600020805460ff1916911515919091179055600101610032565b50600055506101a5565b80516001600160a01b03811681146100bc57600080fd5b919050565b600080604083850312156100d3578182fd5b82516001600160401b03808211156100e9578384fd5b818501915085601f8301126100fc578384fd5b81516020828211156101105761011061018f565b8160051b604051601f19603f830116810181811086821117156101355761013561018f565b604052838152828101945085830182870184018b1015610153578889fd5b8896505b8487101561017c57610168816100a5565b865260019690960195948301948301610157565b5097909101519698969750505050505050565b634e487b7160e01b600052604160045260246000fd5b61099c806101b46000396000f3fe60806040526004361061007f5760003560e01c806393ba3f151161004e57806393ba3f151461014a578063bdaa45531461016a578063d3b73159146101a5578063fe0d94c1146101bb57600080fd5b8063013cf08b1461008b5780630536b723146100c45780630c0512e9146101045780632fb1b25f1461012857600080fd5b3661008657005b600080fd5b34801561009757600080fd5b506100ab6100a63660046107a6565b6101e9565b6040516100bb94939291906108cf565b60405180910390f35b3480156100d057600080fd5b506100f46100df366004610703565b60026020526000908152604090205460ff1681565b60405190151581526020016100bb565b34801561011057600080fd5b5061011a60015481565b6040519081526020016100bb565b34801561013457600080fd5b506101486101433660046107a6565b6102a4565b005b34801561015657600080fd5b50610148610165366004610724565b6103a4565b34801561017657600080fd5b506100f46101853660046107be565b600460209081526000928352604080842090915290825290205460ff1681565b3480156101b157600080fd5b5061011a60005481565b3480156101c757600080fd5b506101db6101d63660046107a6565b6104a5565b6040516100bb929190610908565b6003602052600090815260409020805460018201546002830180546001600160a01b0390931693919261021b9061092b565b80601f01602080910402602001604051908101604052809291908181526020018280546102479061092b565b80156102945780601f1061026957610100808354040283529160200191610294565b820191906000526020600020905b81548152906001019060200180831161027757829003601f168201915b5050505050908060030154905084565b3360009081526002602052604090205460ff166102ed576040517fa1b035c800000000000000000000000000000000000000000000000000000000815260040160405180910390fd5b600081815260046020908152604080832033845290915290205460ff1615610341576040517f1da2cec500000000000000000000000000000000000000000000000000000000815260040160405180910390fd5b60008181526003602081815260408084209092018054600190810190915560048252828420338086529252828420805460ff19169091179055905183927f9a10b6124411386407c4a174729b856d293832181c352e98b5cb316b96cd305991a350565b60018054808201909155604080516080810182526001600160a01b038716815260208082018790528251601f86018290048202810182018452858152919283019190869086908190840183828082843760009201829052509385525050506020918201819052838152600382526040908190208351815473ffffffffffffffffffffffffffffffffffffffff19166001600160a01b03909116178155838301516001820155908301518051919261046392600285019290910190610611565b5060609190910151600390910155604051819033907f42681fc159c671d489c99c06f4693d03a705a21df2fbb2b84eedda79e0db4cff90600090a35050505050565b6000818152600360208190526040822082549181015460609211156104f6576040517f8cf9936100000000000000000000000000000000000000000000000000000000815260040160405180910390fd5b805460018201546040516001600160a01b039092169161051a906002850190610834565b60006040518083038185875af1925050503d8060008114610557576040519150601f19603f3d011682016040523d82523d6000602084013e61055c565b606091505b50909350915082610599576040517fd6bed87300000000000000000000000000000000000000000000000000000000815260040160405180910390fd5b6000848152600360205260408120805473ffffffffffffffffffffffffffffffffffffffff1916815560018101829055906105d76002830182610695565b50600060039190910181905560405185917fddb556f1d2c1ec821e910b019d3685b229db152a0ecd517ca7e24b8bd713928991a250915091565b82805461061d9061092b565b90600052602060002090601f01602090048101928261063f5760008555610685565b82601f1061065857805160ff1916838001178555610685565b82800160010185558215610685579182015b8281111561068557825182559160200191906001019061066a565b506106919291506106d2565b5090565b5080546106a19061092b565b6000825580601f106106b1575050565b601f0160209004906000526020600020908101906106cf91906106d2565b50565b5b8082111561069157600081556001016106d3565b80356001600160a01b03811681146106fe57600080fd5b919050565b600060208284031215610714578081fd5b61071d826106e7565b9392505050565b60008060008060608587031215610739578283fd5b610742856106e7565b935060208501359250604085013567ffffffffffffffff80821115610765578384fd5b818701915087601f830112610778578384fd5b813581811115610786578485fd5b886020828501011115610797578485fd5b95989497505060200194505050565b6000602082840312156107b7578081fd5b5035919050565b600080604083850312156107d0578182fd5b823591506107e0602084016106e7565b90509250929050565b60008151808452815b8181101561080e576020818501810151868301820152016107f2565b8181111561081f5782602083870101525b50601f01601f19169290920160200192915050565b600080835482600182811c91508083168061085057607f831692505b602080841082141561087057634e487b7160e01b87526022600452602487fd5b8180156108845760018114610895576108c1565b60ff198616895284890196506108c1565b60008a815260209020885b868110156108b95781548b8201529085019083016108a0565b505084890196505b509498975050505050505050565b6001600160a01b03851681528360208201526080604082015260006108f760808301856107e9565b905082606083015295945050505050565b821515815260406020820152600061092360408301846107e9565b949350505050565b600181811c9082168061093f57607f821691505b6020821081141561096057634e487b7160e01b600052602260045260246000fd5b5091905056fea2646970667358221220869271a78da1a35a850c1838d28774330bbb1a167145dc3ebbe827a8d4b16df464736f6c63430008040033",
  "linkReferences": {},
  "deployedLinkReferences": {}
}